:020000040800F2
:1000000040450020810200084F140008CB1300086F
:100010004D140008ED030008A91A000800000000B4
:10002000000000000000000000000000C101000806
:100030002D050008000000001D020008D114000872
:100040009B0200089B0200089B0200089B0200081C
:100050009B0200089B0200089B0200089B0200080C
:100060009B0200089B0200089B0200089B020008FC
:100070009B0200089B0200089B0200089B020008EC
:100080009B0200089B0200089B0200089B020008DC
:100090009B0200089B0200089B0200089B020008CC
:1000A0009B020008D91500089B0200089B0200086B
:1000B0009B0200089B0200089B0200089B020008AC
:1000C0009B0200089B0200089B0200089B0200089C
:1000D0009B0200087D1A00089B0200089B02000892
:1000E0009B0200089B0200089B0200089B0200087C
:1000F0009B0200089B0200089B0200089B0200086C
:100100009B0200089B0200089B0200089B0200085B
:100110009B0200089B0200089B0200089B0200084B
:100120009B0200089B020008F10300089B020008E4
:100130009B0200089B0200089B0200089B0200082B
:100140009B0200089B0200089B0200089B0200081B
:100150009B0200089B0200089B0200089B0200080B
:100160009B0200089B0200089B0200089B020008FB
:100170009B0200089B0200089B0200080000000090
:100180009B0200089B0200089B0200089B020008DB
:100190009B0200089B0200089B0200089B020008CB
:1001A0009B0200089B0200089B020008DFF80CD0AD
:1001B00000F00AF900480047AD1C00084045002047
:1001C0002C4B19680868B0E8F04F80F30988BFF33A
:1001D0006F8F4FF0000080F311887047000000001F
:1001E00008480068006880F308884FF0000080F33A
:1001F000148862B661B6BFF34F8FBFF36F8F00DF15
:1002000000BF00BF08ED00E0DFF80C00016841F41A
:1002100070010160704700BF88ED00E0EFF30980D6
:10022000BFF36F8F134B1A681EF0100F08BF20ED3D
:10023000108A20E9F04F106009B44FF0500080F3AD
:100240001188BFF34F8FBFF36F8F02F0FFF94FF0AC
:10025000000080F3118809BC19680868B0E8F04F05
:100260001EF0100F08BFB0EC108A80F30988BFF3AE
:100270006F8F704718000020EFF305807047000073
:100280000648804706480047FEE7FEE7FEE7FEE730
:10029000FEE7FEE7FEE7FEE7FEE7FEE7851500085E
:1002A000AD0100082DE9F05F0546002092469B460F
:1002B00088460646814640241BE02846414647467C
:1002C000224600F070F853465A46C01A914110D3A6
:1002D00011461846224600F057F82D1A67EB010820
:1002E0004F4622460120002100F04EF817EB00098E
:1002F0004E41201EA4F10104DFDC484631462A4667
:100300004346BDE8F09F40EA01039B0703D009E0A4
:1003100008C9121F08C0042AFAD203E011F8013BF1
:1003200000F8013B521EF9D27047D2B201E000F84A
:10033000012B491EFBD270470022F6E710B5134689
:100340000A4604461946FFF7F0FF204610BD421C3E
:1003500010F8011B0029FBD1801A704730B50B46FD
:10036000014600202022012409E021FA02F59D42E5
:1003700005D303FA02F5491B04FA02F52844151EB9
:10038000A2F10102F1DC30BD202A04DB203A00FAA0
:1003900002F1002070479140C2F1200320FA03F3DC
:1003A000194390407047202A04DB203A21FA02F0DA
:1003B0000021704721FA02F3D040C2F1200291409F
:1003C0000843194670470000064C074D06E0E068F8
:1003D00040F0010394E8070098471034AC42F6D38C
:1003E000FFF7E8FE94300008B4300008FEE7000094
:1003F0000148816B014808477C010020B8000020BB
:1004000001681823CAB2103AB2FBF3F2054B6FF33E
:100410000901032A9B5CC36500D9091D8165084653
:10042000704700006830000810B5014600208B6955
:100430008A6A4FF0C07453B1B3F5005F15D072B142
:10044000012A0CD0022A0AD0032A09D104E01AB1E9
:10045000012A06D0022A03D1C96AC90100D50120A8
:1004600010BDC96AA142FAD010BD002AF7D0012AF6
:10047000F2D0022AF3D0032AF3D010BD2DE9F041C7
:100480001D4E0446002030602068A56D0068C0063F
:1004900030D594F85C104FF400608840A860206864
:1004A0004068164FC0F13202A7F1640187F832208C
:1004B0003846FFF728FF3146786B02F087FA30683C
:1004C00038B10F494FF080500860BFF34F8FBFF332
:1004D0006F8F94F85C103F208840A860074821681F
:1004E0006438C8602168322048602068016841F0A3
:1004F00001010160BDE8F081000000207C010020C6
:1005000004ED00E030B50468256825F480252560F9
:10051000046863608368402B036803D099600068B7
:10052000C26030BD9A600068C16030BD70477047DE
:100530002DE9F041044600F093F906465CB1002530
:1005400084F83450022084F835002068016821F0D6
:10055000010101600DE00120BDE8F08100F080F9AB
:10056000801B052805D920206065032084F835000C
:10057000F2E720680068C007F0D1226811682048BF
:100580000140D4E901031843D4E903363343184347
:1005900063691843A3691843E3691843236A18433E
:1005A0000843616A042903D1D4E90B1319430843B2
:1005B000106020684069666A20F0070130460E43EB
:1005C000012704280CD1A06A0643E06A40B1204606
:1005D000FFF72AFF20B14020606584F83570BAE744
:1005E000206846612046FFF70BFF94F85C203F210E
:1005F00091408160656584F835700020ACE70000AB
:100600003F8010F02DE9F0410446866D90F83400EB
:10061000002501280DD0012084F8340094F83570AD
:100620000020012F07D084F8340002252846BDE8B9
:10063000F0810220FBE7022784F8357060652046D0
:10064000FFF760FF94F85C103F208840B06020689E
:10065000016841F0160101602068416941F08001A4
:100660004161206C20B12068016841F008010160FF
:100670002068016841F001010160D7E72DE9F84FDA
:10068000DFF890B100224FF001084FF0030A4FF05D
:100690000F090BF1040E00BF0B6808FA02F42340A7
:1006A000A3426ED14D68022D01D0122D0ED1D50876
:1006B00000EB850CDCF820505607F70E09FA07F618
:1006C000B5430E69BE402E43CCF820600668550045
:1006D0000F790AFA05FC07F0030726EA0C06AF407B
:1006E000374307604E68012E05D0022E03D0112E2D
:1006F00001D0122E0ED18768CE6827EA0C07AE40D3
:100700003E4386604668A6430C79C4F300149440C7
:1007100034434460C4688E6824EA0C04AE40264327
:10072000C6604C68E4006FD53B4C256845F48045B5
:100730002560246822F0030504F480440094374CBB
:100740002E19D6F8084895072F0F09FA07F5AC437C
:10075000334DA84201D100252EE0324DA84201D1EF
:10076000012529E0304DA84201D1022524E02F4D7A
:10077000A84201D103251FE02D4DA84202D1042536
:100780001AE041E02B4DA84201D1052514E02A4D85
:10079000A84201D106250FE0284DA84201D1072526
:1007A0000AE0274DA84201D1082505E0254DA842C1
:1007B00001D1092500E00A25BD402543C6F80858A7
:1007C000DBF800405D464E689C43F60300D51C43B1
:1007D0002C60DEF8004075464E689C43B60300D599
:1007E0001C432C600B4D08352C684E689C43F60268
:1007F00000D51C432C60074D0C352C684E689C437B
:10080000B60200D51C432C60521C102AFFF444AFE2
:10081000BDE8F88F003C0140443802400030014000
:10082000000002400004024000080240000C0240A8
:10083000001002400014024000180240001C024058
:100840000020024000240240426931EA020200D145
:100850000904816170470AB1816170470904FBE7AF
:100860000148806870470000080000200248816845
:100870000278114481607047080000200B4810B5D1
:10088000016841F400710160016841F48061016018
:10089000016841F480710160032000F08DF80020B0
:1008A00000F006F800F03EF8002010BD003C0240C9
:1008B00010B5014688B00022192000F05DF819201B
:1008C00000F04CF813480024016841F00101016078
:1008D000006805A900F001000690684600F04EF996
:1008E00000F07CF90C494000B0FBF1F10C480B4AD8
:1008F000491E026040F2E732C0E90324C0E9011456
:1009000000F03CFB10B1012008B010BD044800F01D
:1009100051FBF9E74438024040420F00000001401B
:100920000C0400200C4882B0016841F48041016051
:10093000006800F4804000900748001F016841F003
:10094000805101600068002200F0805000900F216B
:10095000901E02B000F010B844380240002809DBB5
:1009600000F01F02012191404009800000F1E020C9
:10097000C0F8001170470000F0B40E4B1B680C4625
:10098000C3F30223C3F10705042D00D90425191D63
:10099000072901D2002300E0DB1E012606FA05F13B
:1009A000491E214099409E40761E16403143F0BCBE
:1009B00001F090B80CED00E0064900F0070208686D
:1009C0004FF6FF03184040EA0220034A1043086034
:1009D000704700000CED00E00000FA052DE9F84337
:1009E0001748016841F0805101600068154F00F020
:1009F0008050012600903E64FFF732FF05464FF419
:100A00007A78114C05E000BFFFF72AFF401B4045F4
:100A10000DD86068C003F7D57E64FFF721FF054657
:100A2000464607E0FFF71CFF401BB04202D90320F7
:100A3000BDE8F88360688003F4D50020F8E7000083
:100A40004038024000000E42007000402DE9F0479F
:100A50000E46050065D0DFF81481D8F80000F7B223
:100A600000F00F00B04207D288F80070D8F80000FC
:100A700000F00F00B04254D128683D4C810712D5D8
:100A8000400703D5206840F4E05020602878000734
:100A900003D5206840F4604020602068A96820F0F9
:100AA000F000084320602878C0072DD030496868DE
:100AB0000839012812D0022813D0032811D0096860
:100AC000890700292DDA216821F003010143216003
:100AD000FFF7C6FE814641F2883A0EE009688903B5
:100AE000EFE709688901ECE7FFF7BAFEA0EB09011F
:100AF000514502D90320BDE8F0872068696800F0FD
:100B00000C00B0EB810FEFD1D8F80010404601F097
:100B10000F01B14207D90770006800F00F00B04222
:100B200001D00120E7E72878400705D52068E9686B
:100B300020F4E050084320602878000706D520689C
:100B4000296920F4604040EAC100206000F056F8B6
:100B50002168084AC1F30311515CC8400649086086
:100B60000020FFF7A5FE0020C5E70000003C024082
:100B70000838024070300008140000200F22026084
:100B80000C4A136803F003034360136803F0F00397
:100B90008360136803F4E053C36012684FF4E053BA
:100BA00003EAD20202610448006800F00F00086006
:100BB0007047000008380240003C024004480549E4
:100BC00000680968044AC1F38221515CC84070473B
:100BD000140000200838024080300008044805490D
:100BE00000680968044AC1F34231515CC84070474B
:100BF000140000200838024080300008154810B565
:100C0000006810F00C02144813D04110042A0FD0D1
:100C1000082A0ED10F4C241F2268236802F03F02DD
:100C20005B0207D52068C0F38810A0FB010106E035
:100C3000084610BD2168C1F38811A1FB0001002303
:100C4000FFF730FB2168C1F30141491C4900B0FBAB
:100C5000F1F010BD083802400024F4002DE9F84FEF
:100C6000050076D02878DFF8F8B2BE4CC00749D02E
:100C7000DBF800105846C1F38101012908D0006853
:100C8000C0F3810002280AD1201D0068400206D569
:100C90002068800336D568680028E2D032E06868B2
:100CA000B0F5803F10D0B0F5A02F206810D020F410
:100CB00080302060206820F4802020606868A0B127
:100CC000FFF7CEFD06460CE0206840F48030F4E7E4
:100CD00040F480202060F7E7FFF7C2FD801B642806
:100CE00073D820688003F7D50CE0FFF7B9FD0646FE
:100CF00005E000BFFFF7B4FD801B6428F0D8206832
:100D00008003F7D42878DFF8608280074FF000096D
:100D10003ED5DBF80010584611F00C0F09D00068E2
:100D2000C0F3810002280BD18D48001F00684002EB
:100D300006D42068800715D5E868012809D111E09C
:100D4000E868B8B10120C8F80000FFF789FD064641
:100D500005E002E1FFF784FD801B0228C0D820686F
:100D60008007F7D52068296920F0F80040EAC10023
:100D700020600DE0C8F80090FFF772FD064604E021
:100D8000FFF76EFD801B02281FD820688007F7D46C
:100D90002878000722D5724E744869696C3671B1A3
:100DA00001210160FFF75CFD074604E0FFF758FDF5
:100DB000C01B022809D830688007F7D50EE0C0F8BC
:100DC0000090FFF74DFD074605E083E0FFF748FD83
:100DD000C01B02287ED830688007F7D428784007E7
:100DE00068D5DFF87CA100270AF1380ADAF800009C
:100DF000C0000BD4DAF8001041F08051CAF800109E
:100E0000DAF80000012700F080500090584E30685A
:100E1000C00510D4306840F480703060FFF720FDCA
:100E2000009005E0FFF71CFD0099401A022851D8F8
:100E30003068C005F6D54A4EA868683601280FD03C
:100E40000528306810D020F001003060306820F0B4
:100E500004003060A868B8B1FFF702FD00900FE011
:100E6000306840F00100F4E740F004003060F7E73C
:100E7000FFF7F6FC0099411A41F28830814264D8AC
:100E800030688007F4D50EE0FFF7EAFC009007E039
:100E9000FFF7E6FC0099411A41F28830814254D8AC
:100EA00030688007F4D42FB1DAF8001021F08051B7
:100EB000CAF80010A869C0B3DBF80010C1F38101C3
:100EC00002294AD00228484607D0C8F86000FFF738
:100ED000C7FC00E039E005463AE04746C8F8600044
:100EE000FFF7BEFC064604E0FFF7BAFC801B0228B1
:100EF0002BD820688001F7D4D5E907010843A96AF7
:100F00001C4A490802EB01416A6A41EA821108431E
:100F100095F82C1040EA01611148001F0160012082
:100F20003866FFF79DFC054605E014E0FFF798FCE6
:100F3000401B022809D820688001F7D50BE000BFCC
:100F4000FFF78EFC401B022802D90320BDE8F88F72
:100F500020688001F4D40020F8E70120F6E70000C3
:100F6000083802400038024000004742800E4742E5
:100F7000007000400000FFFF7047704710B504008C
:100F800003D094F83D0010B107E0012010BD00200F
:100F900084F83C00204600F00CF8022084F83D0064
:100FA000211D206800F01EFB012084F83D00002078
:100FB00010BD70470168CA6842F00102CA6000684B
:100FC000816801F00701062903D0016841F00101A1
:100FD000016000207047704770B5044600680169E1
:100FE0004FF00005C943890715D4C168C943890773
:100FF00011D4E91E016101202077206880698007F3
:10100000204602D0FFF7E7FF04E000F098F8204602
:1010100000F096F8257720680169C943490717D47D
:10102000C168C943490713D46FF00401016102206C
:1010300020772068806910F4407F204602D0FFF7B7
:10104000CAFF04E000F07BF8204600F079F825772D
:1010500020680169C943090716D4C168C943090753
:1010600012D46FF008010161042020772068C06964
:101070008007204602D0FFF7AEFF04E000F05FF8E3
:10108000204600F05DF8257720680169C943C9064C
:1010900017D4C168C943C90613D46FF010010161A8
:1010A000082020772068C06910F4407F204602D0D5
:1010B000FFF791FF04E000F042F8204600F040F80E
:1010C000257720680169C943C90708D1C168C943A8
:1010D000C90704D1891E0161204600F033F8206859
:1010E0000169C943090609D4C168C943090605D481
:1010F0006FF0800101612046FFF73EFF2068016923
:10110000C943490609D4C168C943490605D46FF0EB
:1011100040010161204600F01FF820680169C943C1
:1011200089060BD4C168C943890607D46FF0200132
:1011300001612046BDE87040FFF71FBF70BD7047DA
:101140007047000000680349884201D1FFF78EBB59
:1011500070470000000001407047704770B5040000
:1011600004D094F83900002510B106E0012070BDCC
:1011700084F83850204600F023F8242084F8390001
:101180002068C16821F40051C160204600F0EEFAE9
:101190002068016921F4904101612068416921F0D2
:1011A0002A0141612068C16841F40051C160E563D2
:1011B000202084F8390084F83A00002070BD000037
:1011C00070B586B0064614216846FFF7B5F8244985
:1011D0003068884241D123480025016841F0100160
:1011E0000160006800F0100005901E481438016886
:1011F00041F0010101600068694600F001000590BE
:101200004FF4C06000900220019001200290032062
:101210000390072004901448FFF730FA144C134849
:1012200020604FF00060C4E901054014C4E9035098
:101230006561A561E561256220466562FFF778F981
:1012400008B1FFF774F97463002205212520A66315
:10125000FFF792FB2520FFF781FB06B070BD000071
:101260000010014044380240000002404064024047
:10127000B8000020F8B5044690F83A0020283CD188
:10128000C1B3BAB394F83800012836D0012084F8ED
:101290003800A162A2850025E563222084F83A0087
:1012A000636B1748D863636B16481864636B164802
:1012B000D864606B134605650846666B2168024674
:1012C0003046091DFFF79EF92068016841680091CA
:1012D00084F83850C16841F48071C1602068416968
:1012E00041F0010141612068416941F040014161E3
:1012F0000020F8BDFFE70120FBE70220F9E700002E
:10130000F716000833170008AD160008704770473D
:101310002DE9F843044690F839001F4616460D465D
:10132000202850D1A5B19EB194F8380001284AD0A8
:10133000012084F838004FF00008C4F83C802120D8
:1013400084F83900FFF78CFAA6848146E68426E00B
:101350000120BDE8F883E08C401EE084A0684B4685
:10136000B0F5805F4FF000024FF0800120460097FB
:1013700003D000F051FBE8B90DE000F04DFBC8B917
:1013800028882168C0F308004860206908B16D1CF6
:1013900005E0AD1C03E0216815F8010B4860E08C06
:1013A0000028D8D14B46002240212046009700F06B
:1013B00033FB08B10320CCE7202084F8390084F8FF
:1013C00038800020C5E70220C3E7FEE770B586B08D
:1013D00014216846FEF7B0FF1A480024016841F066
:1013E00080010160016801F080010591016841F010
:1013F00001010160016801F001010591016841F0FE
:1014000040010160016801F040010591016841F06F
:101410000201016000680C4E00F002004FF4C0456C
:101420000590002229463046FFF715FA0120009565
:10143000CDE90104694630460394FFF71FF906B071
:1014400070BD00003038024000180240FEE77047CF
:101450001A481B4C03220021A063012001F09EF9D1
:10146000606320B100231A46194601F0FFF900F02D
:1014700001FC0021606B01F0F7FA124F4FF0FF35CD
:101480004FF4C0462946606B01F0EEFA0C4894F820
:1014900032200DA1323800F009FB09483238FEF73E
:1014A00056FF074982B232390A23A1F1D200FFF771
:1014B0002FFF31463846FFF7C7F9E3E77D04000800
:1014C0007C0100200018024025640D0A0000000085
:1014D00010B5502080F31188BFF34F8FBFF36F8F8B
:1014E00001F01EFC18B104494FF080500860002044
:1014F00080F3118810BD000004ED00E030B593B01A
:1015000030216846FEF718FF14210CA8FEF714FFDF
:101510001A480025016841F080510160006800F020
:10152000805011901648016841F440410160006804
:10153000022400F44040119001200090000401902A
:101540008001CDE9064008AA0420B42182E81300F6
:101550000B906846FFF782FBFFF740FA0CA90F20BB
:1015600081E831004FF4A0500F90E0021090052167
:101570000CA8FFF76BFA13B030BD000040380240F2
:10158000007000401048016841F4700101600F488C
:10159000016841F0010101600C4A0021083211602C
:1015A00002680B4B1A400260031D0A4A1A60026867
:1015B00022F48022026005480C300160024958067E
:1015C000803908607047000088ED00E00038024074
:1015D000FFFFF6FE103000240148FFF7FDBC0000BD
:1015E0000C040020F0B50268254C264D264E274FEE
:1015F000274B4FF0804CA04209D0604507D0A8424D
:1016000005D0B04203D0B84201D0984204D122F0B4
:10161000700E4A6842EA0E02A0421BD0604519D003
:10162000A84217D0B04215D0B84213D0984211D07A
:10163000184DA8420ED0184DA8420BD0174DA84205
:1016400008D0174DA84205D0164DA84202D0164D1D
:10165000A84203D122F44075CA682A434D6922F09A
:1016600080022A4302608A68C2620A688262A042DB
:1016700001D0984201D10969016301214161F0BDA6
:10168000000001400004004000080040000C004041
:101690000004014000400140004401400048014076
:1016A00000180040001C00400020004070B5846B12
:1016B0002068406994F83910C0F3C0100025212932
:1016C00004D118B1E584204600F046F8206840694E
:1016D00094F83A10C0F38010222904D118B1E5859E
:1016E000204600F02BF8E06B40F01000E06320464D
:1016F000FFF733FD70BD10B50146806B09680968BE
:10170000C90513D40021C1850168CA6822F480721A
:10171000CA6001684A6922F001024A6101684A69A7
:1017200022F040024A61202180F83A10FFF7EEFDD6
:1017300010BD10B5806BFFF7EAFD10BD0168CA68E7
:1017400022F49072CA6001684A6922F001024A617B
:10175000202180F83A1070470168CA6822F0C00260
:10176000CA60202180F83910704700002DE9F0414F
:10177000044600680169E26821F4405111430161A7
:101780002169A068E269084361691143226808433E
:10179000D16849F20C6399430143D16020684169E3
:1017A000A26921F4407111434161E2696425B2F5F7
:1017B000004F9748974922684FF032083FD08A423D
:1017C00001D082427CD1FFF709FA00EBC00101EBA6
:1017D000001061688900B0FBF1F6FFF7FFF900EB3C
:1017E000C00101EB001061688900B0FBF1F0B0FBB3
:1017F000F5F06FF01801484306EB800108EB01108B
:10180000B0FBF5F000F0F006FFF7E8F900EBC001DF
:1018100001EB001061688900B0FBF1F0B0FBF5F05E
:1018200006EB0016FFF7DAF900EBC00101EB001040
:1018300061688900B0FBF1F7FFF7D0F9D2E08A4286
:1018400001D082423DD1FFF7C9F900EBC00101EBA5
:10185000001061684900B0FBF1F0B0FBF5F0060143
:10186000FFF7BCF900EBC00101EB00106168490013
:10187000B0FBF1F7FFF7B2F900EBC00101EB00108C
:1018800061684900B0FBF1F0B0FBF5F06FF01801B2
:10189000484307EB800108EBC100B0FBF5F000F016
:1018A000F80006EB4006FFF799F900EBC00101EBE9
:1018B000001061684900B0FBF1F7FFF78FF93CE0D9
:1018C00055E0FFF77BF900EBC00101EB0010616808
:1018D0004900B0FBF1F0B0FBF5F00601FFF76EF93F
:1018E00000EBC00101EB001061684900B0FBF1F7AB
:1018F000FFF764F900EBC00101EB001061684900DB
:10190000B0FBF1F0B0FBF5F06FF01801484307EBC6
:10191000800108EBC100B0FBF5F000F0F80006EB29
:101920004006FFF74BF900EBC00101EB00106168C6
:101930004900B0FBF1F7FFF741F900EBC00101EB03
:10194000001061684900B0FBF1F0B0FBF5F06FF0FA
:101950001801484307EB800108EBC100B0FBF5F02C
:1019600000F00700216830448860BDE8F081FFF78F
:1019700025F900EBC00101EB001061688900B0FBA4
:10198000F1F6FFF71BF900EBC00101EB00106168F5
:101990008900B0FBF1F0B0FBF5F06FF0180148439F
:1019A00006EB800108EB0110B0FBF5F000F0F0064B
:1019B000FFF704F900EBC00101EB0010616889003A
:1019C000B0FBF1F0B0FBF5F006EB0016FFF7F6F810
:1019D00000EBC00101EB001061688900B0FBF1F77A
:1019E000FFF7ECF800EBC00101EB00106168890023
:1019F000B0FBF1F0B0FBF5F06FF01801484307EBD6
:101A0000800108EB0110B0FBF5F000F00F00A9E732
:101A100000140140001001402DE9F041984617469E
:101A20000E460446069D1DE0681C1BD02DB1FEF736
:101A300017FFA0EB0800A84214D92068C16821F460
:101A4000D071C1602068416921F00101416120200D
:101A500084F8390084F83A00002084F83800032024
:101A6000BDE8F0812068006836EA000004D000205C
:101A7000B842D9D00020F3E70120F9E70149024834
:101A800000F004B8B80000207800002008B5006815
:101A90000268D20607D502684068009008680168AD
:101AA00021F00101016008BDFEE700000FB4084B02
:101AB00010B504A902AA039800F02CF8044602A964
:101AC000002000F0D1F8204610BC5DF814FB0000A7
:101AD000691C00080907090E002804DB00F1E0205A
:101AE00080F80014704700F00F0000F1E02080F84B
:101AF000141D704702E008C8121F08C1002AFAD15D
:101B000070477047002001E001C1121F002AFBD17D
:101B1000704700002DE9FF4F89B09B460446002521
:101B200006E025280BD05A460B999047641C6D1C83
:101B300020780028F5D10DB02846BDE8F08F0027A9
:101B4000B8460122474900E0074314F8013F203B13
:101B500002FA03F00842F7D120782E2819D114F8A0
:101B6000010F47F004072A280ED06FF02F022078CB
:101B7000A0F1300109290CD808EB880102EB4101E2
:101B800000EB0108641CF2E70A98641C50F8048B0F
:101B90000A9020780028CED0642808D0692806D082
:101BA00075281ED05A460B9990476D1C58E00A992B
:101BB0004FF00A0901C90A91002802DA40422D219A
:101BC00002E0390504D52B218DF82010012103E016
:101BD000F90704D02021F7E78A4608AE0DE000217E
:101BE000FAE70A994FF00A0901C90A91F7E749464D
:101BF000FEF7B4FB303106F8011D0028F7D1ADEB3C
:101C0000060000F12009780701D44FF00108C8450B
:101C100002DDA8EB090000E000208046002706E076
:101C200008A85A46C05D0B9990476D1C7F1C57450C
:101C3000F6DB04E030205A460B9990476D1CB8F152
:101C40000001A8F10108F5DC05E016F8010B5A4681
:101C50000B9990476D1CB9F10001A9F10109F4DC61
:101C6000641C65E7092801000A68531C0B601070AA
:101C7000704700000C4810B50068C16841F01001C1
:101C8000C160094C40342068016841F010010160D6
:101C9000322204F160010448FFF7ECFA2068016881
:101CA00021F00801016010BD7800002088B0FEF727
:101CB000E5FDFFF723FCFFF789FB174800240168C7
:101CC00041F4800101600068224600F48000079022
:101CD00005213A20FEF750FE3A20FEF73FFE10485D
:101CE0000E4901604FF4E131C0E901140C21C460D8
:101CF000C0E904418461C461FFF730FA1C2209493C
:101D00006846FEF700FB0021684600F01AF8064915
:101D1000486000F011F8FEE7303802400010014042
:101D2000780000204C300008000000200146002010
:101D3000842900D0C81C704710B500F049FC002071
:101D400010BD7FB50D4604464169B0F9080081B168
:101D5000A16971B1FFF7EAFFD4E905128DE8070028
:101D6000D4E900102B46226900F0A1FF039004B0D3
:101D700070BDFFF7DBFF03A9CDE90001208A2B46E8
:101D800082B2D4E9001000F065FF012801D00020E4
:101D9000EDE70398EBE700002DE9F041184C0F4602
:101DA000054666692068001D00F0AAFA38B9206867
:101DB00090F82C1001208840A1698143A161681C22
:101DC00007D137B12168BDE8F0410E48091D00F088
:101DD000DBBA20683544B5424560216805D2A06869
:101DE000BDE8F041091D00F0B7BA6068091D00F0B8
:101DF000B3FA206B854200D22563BDE8F081000074
:101E000018000020280500202DE9F041054600F0CB
:101E1000C7FA2E4C2069401C206120682C4F10B15D
:101E2000E06940B32DE025602069012829D1002612
:101E300006EB860007EB800000F080FA761C072E88
:101E4000F6D323488C3000F079FA2148A03000F016
:101E500075FA1F48B43000F071FA1D48C83000F020
:101E60006DFA1B48DC3000F069FA19488C3060606C
:101E70001430A06005E02068E96AC06A884200D892
:101E80002560E06A401CE062E96A0120A26988409E
:101E90001043A06101EB810007EB8000291D00F0D9
:101EA00073FA00F09DFAE06900280CD02068E96A16
:101EB000C06A884207D207494FF080500860BFF3DC
:101EC0004F8FBFF36F8FBDE8F08100001800002036
:101ED0004C04002004ED00E02DE9F041856B17462D
:101EE00004460026026C82B1C7B1E068FEF70BFA27
:101EF000E168206C091AE1602268914202D26168AF
:101F0000081AE060022F16D017E02068A8B96068B0
:101F100000F06AFF0646002060600EE0A068FEF751
:101F2000F2F9216CA0680844A0606168884204D37B
:101F30002068A06001E005B16D1E6D1CA5633046F0
:101F4000BDE8F08110B5044690F8510058B1012861
:101F50000CD002280FD0502080F31188BFF34F8F90
:101F6000BFF36F8FFEE7206B00F04EFA2046BDE80E
:101F7000104000F049BA10BD10484FF470514207AC
:101F800006D0C01D0D4920F00700411AC1F570515F
:101F90000B4A00230144C2E900030839103A21F03A
:101FA000070111604B600B600B1AC0E900139360CE
:101FB0004FF000405360D060704700003C050020A7
:101FC00064000020144E154CA6F1C8074FF080584D
:101FD000DFF84C9012E000BF00F0E2F9F068C5684D
:101FE000281D00F08DF92069401E2061E068401E28
:101FF000E06000F0F5F92846FFF7A4FFE06800284C
:10200000EAD138680128F9D9C9F80080BFF34F8FA9
:10201000BFF36F8FF2E700001405002018000020C6
:1020200004ED00E00346009829B10260C0E90F31D9
:10203000012100F0D7BB0060F8E72DE9F0479A4690
:10204000DDE9098481466FF00303206B03EB820214
:102050001044089D20F00706700707D0502080F339
:102060001188BFF34F8FBFF36F8FFEE723180A5C11
:1020700083F834200A5C12B1401C1028F6D30027E4
:1020800084F84370072D00D30625E562C4E9115793
:10209000201D00F05EF904F1180000F05AF92461E7
:1020A000C5F107006462A061E76484F8507052468D
:1020B0004946304600F00EF92060B8F1000F01D01B
:1020C000C8F80040BDE8F08730B5114900E011467E
:1020D0000A688242FBD34B685C18844203D1406893
:1020E00018444860084643681C18944209D1084CBB
:1020F000103C2468A24209D052681A4442600A681F
:1021000012680260814200D0086030BD0460F9E7C7
:102110006400002010B5044600F042F9A06B28B11D
:102120005FF0000400F05CF9204610BD0124F9E7DF
:1021300006484168096829B14168C968C9684968A1
:10214000016370474FF0FF31FAE7000018000020EC
:1021500008484068401C4FF0500080F3118804D0BC
:10216000BFF34F8FBFF36F8FFEE7BFF34F8FBFF308
:102170006F8FFEE76C0000202DE9F041044600F06F
:102180000FF994F9455004F1240609E0606A48B15A
:10219000304600F0BFFE08B100F0A8F96D1E6DB228
:1021A000002DF3DC4FF0FF3684F8456000F018F99D
:1021B00000F0F6F894F9445004F1100709E02069A2
:1021C00048B1384600F0A6FE08B100F08FF96D1E48
:1021D0006DB2002DF3DC84F84460BDE8F04100F0FE
:1021E000FFB800002DE9F0410546002700F026FA6F
:1021F000314E306808B9FFF7BFFEF06805424BD199
:10220000C5B3083568070ED005F00700C0F1080017
:102210000544680707D0502080F31188BFF34F8F23
:10222000BFF36F8FFEE72DB37068854234D8224824
:10223000103001460C6801E020460C466168A94256
:1022400002D221680029F7D131688C4224D0076876
:102250002168016060680837411B10290FD9601997
:10226000420708D0502080F31188BFF34F8FBFF38F
:102270006F8FFEE710E041606560FFF725FF616842
:102280007068401A7060B268904200D2B060F06826
:1022900001430020C4E9000100F076FE780707D072
:1022A000502080F31188BFF34F8FBFF36F8FFEE78D
:1022B0003846BDE8F0810000540000200449086859
:1022C00018B10868826C521C82640868704700006C
:1022D0001800002010B5031F4FF080741C601B1FF6
:1022E00021F001011960191F044B0B6014390A60B9
:1022F000091F6FF0020244380A6010BD5121000826
:10230000D0E9013201699A60D0E901235A604A6834
:10231000824201D182684A60002202610868401E40
:102320000860086870470000034B036003F1540025
:102330000860802010607047B801002000F108019B
:102340004FF0FF32C0E90112C1600161002101605C
:10235000704700210161704730B50B685A1C02D0EC
:1023600000F1080202E0026904E022465468256890
:102370009D42FAD953684B6099608A605160086148
:102380000168491C016030BD42684A6093688B60F7
:1023900093685960916008610168491C0160704749
:1023A000502080F31188BFF34F8FBFF36F8F0A491E
:1023B0004868401C486001280CD10848006810F0AB
:1023C000FF0F07D0502080F31188BFF34F8FBFF36A
:1023D0006F8FFEE7704700006C00002004ED00E006
:1023E0000849486828B1401E486001D180F311882F
:1023F0007047502080F31188BFF34F8FBFF36F8F6A
:10240000FEE700006C00002070B5002827D0144DB6
:10241000A0F108046168E868014207D1502080F308
:102420001188BFF34F8FBFF36F8FFEE722683AB179
:10243000502080F31188BFF34F8FBFF36F8FFEE7FB
:102440008143616000F0FAF8606869680844686078
:102450002046FFF739FEBDE8704000F095BD70BD25
:10246000540000204FF0E020002101618161054906
:102470004FF47A720968B1FBF2F1491E41610721FC
:10248000016170471400002010B5FDF7F5FE1149F9
:1024900010280ED300F1E02090F8F0030A78904263
:1024A00007D2502080F31188BFF34F8FBFF36F8F97
:1024B000FEE709480068896800F4E060884207D9AF
:1024C000502080F31188BFF34F8FBFF36F8FFEE76B
:1024D00010BD00006C0000200CED00E002498A6A8B
:1024E00002604969416070471800002001490120DD
:1024F000486270471800002010B50C4650B10949D9
:1025000009681831FFF728FF2046BDE81040012177
:10251000FFF742BC502080F31188BFF34F8FBFF309
:102520006F8FFEE71800002070B504004BD0A26C3E
:10253000A2B1606C884200D30146E06A884242D072
:10254000012A40D1204D2A6894420FD1502080F3B7
:102550001188BFF34F8FBFF36F8FFEE7502080F3DA
:102560001188BFF34F8FBFF36F8FFEE7E162A2695F
:10257000002A02DBC1F10701A161144E00EB8000CB
:10258000616906EB800081421DD1201DFFF7B8FE76
:10259000012150B9E06A00EB800256F8222022B9EE
:1025A000AA6901FA00F08243AA61E06AAA6981403F
:1025B0001143A96100EB800006EB8000211DBDE8FE
:1025C0007040FFF7E1BE70BD180000204C040020F1
:1025D00010B586B00024039405AA04A903A80494A6
:1025E000FFF7A2FEDDE903010094CDE9011000230D
:1025F0000EA11048059A00F05AFB0F4900284863C5
:1026000011D0502080F31188BFF34F8FBFF36F8F2D
:102610004FF0FF3008630120C8614C6106B0BDE88F
:10262000104000F041B806B010BD000049444C45D0
:1026300000000000C51F0008180000200248816B40
:10264000491C816370470000180000201448816B0A
:1026500011B1012141627047002141628169B1FAE3
:1026600081F1C1F11F0101EB81020E4951F82230C5
:102670006BB101EB820101F108034A6852684A60BC
:102680009A4201D152684A60D16801607047502077
:1026900080F31188BFF34F8FBFF36F8FFEE7000009
:1026A000180000204C0400201CB537480168374A48
:1026B000914207D1502080F31188BFF34F8FBFF3B1
:1026C0006F8FFEE700683149491E884207D15020CC
:1026D00080F31188BFF34F8FBFF36F8FFEE72C4954
:1026E00008780190FF20087008788DF800009DF8A8
:1026F00000009DF8002000F0F000904207D050202C
:1027000080F31188BFF34F8FBFF36F8FFEE79DF803
:102710000000204B00F0500018700720986005E082
:102720009DF8002052008DF80020401E9DF80020EA
:102730001206F5D49860032807D0502080F3118842
:10274000BFF34F8FBFF36F8FFEE74FF44070986079
:10275000019808700C482030016841F47001016054
:10276000016841F070410160FFF77CFE0020586075
:10277000FDF74AFD0848016841F040410160FDF75E
:102780002FFD00201CBD000000ED00E071C20F41D4
:1027900000E400E06C00002034EF00E0F8B51746DC
:1027A0000E46050014D0DEB105FB06F04830FFF7F9
:1027B00019FD04000AD0002084F8460004F1480204
:1027C0003B46314628460094FFF72CFC2046F8BDD6
:1027D000502080F31188BFF34F8FBFF36F8FFEE758
:1027E0000020E3E770B50D46040025D0FFF7D8FDC3
:1027F000D4E90F20216802FB001161600021A16370
:102800002168A1600A46D4E90F01401E00FB0121A6
:10281000E16021464FF0FF3001F8440F487004F1A9
:1028200010008DB1FFF78AFD04F12400FFF786FD4B
:10283000FFF7D6FD012070BD502080F31188BFF353
:102840004F8FBFF36F8FFEE721690029F0D000F0B2
:1028500061FB0028ECD004494FF080500860BFF3C2
:102860004F8FBFF36F8FE3E704ED00E02DE9FF47E3
:1028700082B01D468A464FF00008040003D0BAF12A
:10288000000F08D011E0502080F31188BFF34F8F64
:10289000BFF36F8FFEE7206C38B1502080F31188B2
:1028A000BFF34F8FBFF36F8FFEE7022D0AD1E06BAE
:1028B000012807D0502080F31188BFF34F8FBFF35A
:1028C0006F8FFEE700F01EFA3F4F4FF000094FF008
:1028D000805648B9049838B1502080F31188BFF36E
:1028E0004F8FBFF36F8FFEE7FFF75AFDA06BE16BD1
:1028F000884207D3022D05D00498D0B1B8F1000F5B
:102900001AD01EE02A4651462046FFF7E5FA616AD2
:1029100019B104F1240000F0FDFA20B13E60BFF3CC
:102920004F8FBFF36F8FFFF75BFD012006B0BDE84F
:10293000F087FFF755FD22E06846FFF7CFFD4FF027
:102940000108FFF74DFDFFF779FEFFF729FD94F928
:102950004400401C01D184F8449094F94500401C87
:1029600001D184F84590FFF73BFD04A9684600F0CB
:1029700037F930B12046FFF7FFFB00F005FB0020E0
:10298000D4E7FFF70DFDA06BE16B884213D1FFF791
:1029900027FD04F110000499FFF7AEFD2046FFF774
:1029A000EBFB00F0F1FA00289ED13E60BFF34F8FA1
:1029B000BFF36F8F98E7FFF713FD2046FFF7DCFBAF
:1029C00000F0E2FA90E7000004ED00E070B50E467A
:1029D000040009D0206C78B1502080F31188BFF337
:1029E0004F8FBFF36F8FFEE7502080F31188BFF346
:1029F0004F8FBFF36F8FFEE7206848B9606838B12A
:102A0000502080F31188BFF34F8FBFF36F8FFEE725
:102A1000FFF73AFD5020EFF3118580F31188BFF3E3
:102A20004F8FBFF36F8FA16BE06B884218D994F979
:102A30004500491CA163411C04D0401C84F845009A
:102A400001200EE0606A0028FAD004F1240000F0B2
:102A500061FA0028F4D0002EF2D001203060EFE7B8
:102A6000002085F3118870BD2DE9F343002683B063
:102A70000400354609D0206C78B1502080F31188CD
:102A8000BFF34F8FBFF36F8FFEE7502080F31188A5
:102A9000BFF34F8FBFF36F8FFEE700F033F9DFF81E
:102AA0003C814FF000094FF0805748B9049838B185
:102AB000502080F31188BFF34F8FBFF36F8FFEE775
:102AC000FFF76EFCA06BC8B1401EA063206810B970
:102AD000FFF7F4FB6060206950B104F1100000F0D2
:102AE00019FA28B1C8F80070BFF34F8FBFF36F8F8A
:102AF000FFF776FC012005B0BDE8F083049808B12B
:102B000066B10FE03DB1502080F31188BFF34F8FC5
:102B1000BFF36F8FFEE7FFF763FC5DE06846FFF7EA
:102B2000DDFC0126FFF75CFCFFF788FDFFF738FCB2
:102B300094F94400401C01D184F8449094F9450074
:102B4000401C01D184F84590FFF74AFC04A968466F
:102B500000F046F80028204612D0FFF70DFB00F0E9
:102B600013FA2046FFF7D6FA0028A9D09DB3FFF745
:102B700017FC606A50B3206B0068C0F1070126E0C3
:102B8000FFF7C8FAE0B1206838B9FFF709FC6068C0
:102B900000F076F90546FFF723FC04F124000499C0
:102BA000FFF7AAFC2046FFF7E7FA00F0EDF900284E
:102BB00086D1C8F80070BFF34F8FBFF36F8F7FE7E8
:102BC0002046FFF7D9FA00F0DFF979E700216068C5
:102BD000FFF7AAFC9FE7FFE700208CE704ED00E089
:102BE0002DE9F0410C46050011D0C4B1FFF7D8FB28
:102BF000174B5A696E682068911B471C17D02F68C5
:102C00009B6A9F4219D0964217D8012410E05020A9
:102C100080F31188BFF34F8FBFF36F8FFEE7502013
:102C200080F31188BFF34F8FBFF36F8FFEE700244F
:102C3000FFF7D6FB2046BDE8F081884205D9401A4F
:102C400020602846FFF74AFCF1E700202060DCE71F
:102C5000180000202DE9FF5F8346DDE90E879946C5
:102C600016468A469000FFF7BDFA05001CD0542096
:102C7000FFF7B8FA040014D00020256384F851004F
:102C8000CDE90240CDE900874B46324651465846D1
:102C9000FFF7D3F92046FFF7B7F8012004B0BDE8ED
:102CA000F09F2846FFF7B0FB4FF0FF30F6E7F0B596
:102CB00085B0DDE90B640A9DA6B1DCB1542700970D
:102CC0002663022684F85160002604AFCDE902464F
:102CD000CDE90057FFF7B1F92046FFF795F80498C2
:102CE00005B0F0BD502080F31188BFF34F8FBFF3C4
:102CF0006F8FFEE7502080F31188BFF34F8FBFF333
:102D00006F8FFEE70548C16919B1806B18B10020CB
:102D10007047012070470220704700001800002013
:102D20002DE9F0412E4C0027A06B40B1206A401CD9
:102D30002062606A00B101273846BDE8F08166690B
:102D4000761C666113D16068006838B1502080F34A
:102D50001188BFF34F8FBFF36F8FFEE76068A168E4
:102D60006160A060A06A401CA062FFF7E1F9206BDF
:102D7000DFF87080864209D36068006880B16068BF
:102D8000C068C568686886420DD220632068C06A42
:102D900000EB800158F821000128CAD90127C8E7B3
:102DA0004FF0FF30F1E7281DFFF7AAFAA86A18B123
:102DB00005F11800FFF7A4FAE86A0121A269814031
:102DC0001143A16100EB800108EB8100291DFFF791
:102DD000DBFAE86A2168C96A8842CDD30127CBE7CC
:102DE000180000204C04002070B504004FF00001D2
:102DF00040D0214D2868844207D0502080F31188AC
:102E0000BFF34F8FBFF36F8FFEE7A06C38B1401E4A
:102E1000A064636CE26A9A422CD040B12AE0502050
:102E200080F31188BFF34F8FBFF36F8FFEE7201D34
:102E3000FFF766FA114A012150B9E06A00EB8003FE
:102E400052F8233023B9AB6901FA00F08343AB6138
:102E5000606CE062C0F10700A061E06AAB6981408C
:102E60001943A96100EB800002EB8000211DFFF7F0
:102E70008BFA0121084670BD180000204C04002088
:102E800070B504004FF0000038D0204DE16A2A6888
:102E9000D26A914233D2A069002804DB2868C06A54
:102EA000C0F10700A0611A4E01EB8101606906EBD9
:102EB000810188421ED1201DFFF722FA012150B95D
:102EC000E06A00EB800256F8222022B9AA6901FAD2
:102ED00000F08243AA612868C06AE062AA69814062
:102EE0001143A96100EB800006EB8000211DFFF774
:102EF0004BFA02E02868C06AE062012070BD616C94
:102F00002A68D26A9142F8D370BD000018000020F0
:102F10004C0400202DE9F041C068C468ACB104F154
:102F200018000746FFF7ECF9154DA86B0126A0B174
:102F300039461448FFF728FAE06A2968C96A8842C6
:102F40001CD901206E62BDE8F081502080F3118809
:102F5000BFF34F8FBFF36F8FFEE7201DFFF7D0F950
:102F6000E16AAA6906FA01F01043A86101EB810049
:102F70000449B43901EB8000211DDBE70020E2E7C2
:102F800018000020000500202DE9F0472C4D0024FA
:102F90002746A86B38B1FFF703FAA86B401EA86359
:102FA000A86B40B146E0502080F31188BFF34F8FEB
:102FB000BFF36F8FFEE72969224E0120D1B3A6F13E
:102FC000B40980463068E8B1F068C46804F11800BC
:102FD000FFF796F9201DFFF793F9E06AAA6908FA4E
:102FE00000F11143A96100EB800109EB8100211D73
:102FF000FFF7CAF9E06A2968C96A8842E2D3C5F8CE
:103000002480DFE70CB1FFF793F82C6A44B1464601
:10301000FFF786FE00B16E62641EF9D100202862BF
:10302000686A38B10849012738070860BFF34F8F35
:10303000BFF36F8FFFF7D4F93846BDE8F087000083
:10304000180000200005002004ED00E08830000892
:103050005114000800000000000000008000000083
:103060000000000000000000000610160006101608
:103070000000000000000000010203040607080928
:10308000000000000102030464656661756C7454FD
:1030900061736B00B430000800000020780000006D
:1030A000F41A00082C31000878000020C844000001
:1030B000041B0008000000000000000001000000E8
:1030C00010000000000000000024F40000000000D8
:1030D00000000000000000000000000000000000F0
:1030E00000000000000000000000000000000000E0
:1030F00000000000000000000000000000000000D0
:1031000000000000000000000000000000000000BF
:1031100000000000000000000000000000000000AF
:0C31200000000000AAAAAAAA00000000FB
:04000005080001AD41
:00000001FF
